{
  "_format": "hh-sol-artifact-1",
  "contractName": "CudosMarkets",
  "sourceName": "contracts/CudosMarkets.sol",
  "abi": [
    {
      "inputs": [
        {
          "internalType": "contract CudosAccessControls",
          "name": "_cudosAccessControls",
          "type": "address"
        }
      ],
      "stateMutability": "payable",
      "type": "constructor"
    },
    {
      "anonymous": false,
      "inputs": [
        {
          "indexed": false,
          "internalType": "address",
          "name": "relayerAddress",
          "type": "address"
        }
      ],
      "name": "ChangedRelayerAddress",
      "type": "event"
    },
    {
      "anonymous": false,
      "inputs": [
        {
          "indexed": false,
          "internalType": "address",
          "name": "withdrawer",
          "type": "address"
        }
      ],
      "name": "FinishedPaymentsWithdrawn",
      "type": "event"
    },
    {
      "anonymous": false,
      "inputs": [
        {
          "indexed": false,
          "internalType": "uint32",
          "name": "paymentId",
          "type": "uint32"
        },
        {
          "indexed": false,
          "internalType": "uint256",
          "name": "amount",
          "type": "uint256"
        },
        {
          "indexed": true,
          "internalType": "address",
          "name": "sender",
          "type": "address"
        },
        {
          "indexed": false,
          "internalType": "bytes",
          "name": "cudosAddress",
          "type": "bytes"
        }
      ],
      "name": "NftMinted",
      "type": "event"
    },
    {
      "anonymous": false,
      "inputs": [
        {
          "indexed": false,
          "internalType": "address",
          "name": "payee",
          "type": "address"
        }
      ],
      "name": "PaymentsWithdrawn",
      "type": "event"
    },
    {
      "anonymous": false,
      "inputs": [
        {
          "indexed": false,
          "internalType": "uint32",
          "name": "paymentId",
          "type": "uint32"
        }
      ],
      "name": "WithdrawalsUnlocked",
      "type": "event"
    },
    {
      "inputs": [],
      "name": "cudosAccessControls",
      "outputs": [
        {
          "internalType": "contract CudosAccessControls",
          "name": "",
          "type": "address"
        }
      ],
      "stateMutability": "view",
      "type": "function"
    },
    {
      "inputs": [
        {
          "internalType": "uint32",
          "name": "paymentId",
          "type": "uint32"
        }
      ],
      "name": "getPaymentStatus",
      "outputs": [
        {
          "internalType": "enum CudosMarkets.PaymentStatus",
          "name": "",
          "type": "uint8"
        }
      ],
      "stateMutability": "view",
      "type": "function"
    },
    {
      "inputs": [],
      "name": "getPayments",
      "outputs": [
        {
          "components": [
            {
              "internalType": "uint32",
              "name": "paymentId",
              "type": "uint32"
            },
            {
              "internalType": "address",
              "name": "payee",
              "type": "address"
            },
            {
              "internalType": "uint256",
              "name": "amount",
              "type": "uint256"
            },
            {
              "internalType": "enum CudosMarkets.PaymentStatus",
              "name": "status",
              "type": "uint8"
            },
            {
              "internalType": "bytes",
              "name": "cudosAddress",
              "type": "bytes"
            }
          ],
          "internalType": "struct CudosMarkets.Payment[]",
          "name": "",
          "type": "tuple[]"
        }
      ],
      "stateMutability": "view",
      "type": "function"
    },
    {
      "inputs": [
        {
          "internalType": "address",
          "name": "",
          "type": "address"
        },
        {
          "internalType": "uint256",
          "name": "",
          "type": "uint256"
        }
      ],
      "name": "paymentIdsByAddress",
      "outputs": [
        {
          "internalType": "uint32",
          "name": "",
          "type": "uint32"
        }
      ],
      "stateMutability": "view",
      "type": "function"
    },
    {
      "inputs": [
        {
          "internalType": "uint32",
          "name": "",
          "type": "uint32"
        }
      ],
      "name": "payments",
      "outputs": [
        {
          "internalType": "uint32",
          "name": "paymentId",
          "type": "uint32"
        },
        {
          "internalType": "address",
          "name": "payee",
          "type": "address"
        },
        {
          "internalType": "uint256",
          "name": "amount",
          "type": "uint256"
        },
        {
          "internalType": "enum CudosMarkets.PaymentStatus",
          "name": "status",
          "type": "uint8"
        },
        {
          "internalType": "bytes",
          "name": "cudosAddress",
          "type": "bytes"
        }
      ],
      "stateMutability": "view",
      "type": "function"
    },
    {
      "inputs": [
        {
          "internalType": "bytes",
          "name": "cudosAddress",
          "type": "bytes"
        }
      ],
      "name": "sendPayment",
      "outputs": [],
      "stateMutability": "payable",
      "type": "function"
    },
    {
      "inputs": [
        {
          "internalType": "address",
          "name": "_relayerAddress",
          "type": "address"
        }
      ],
      "name": "setRelayerAddress",
      "outputs": [],
      "stateMutability": "nonpayable",
      "type": "function"
    },
    {
      "inputs": [
        {
          "internalType": "uint32",
          "name": "paymentId",
          "type": "uint32"
        }
      ],
      "name": "unlockPaymentWithdraw",
      "outputs": [],
      "stateMutability": "nonpayable",
      "type": "function"
    },
    {
      "inputs": [
        {
          "internalType": "uint256",
          "name": "amount",
          "type": "uint256"
        }
      ],
      "name": "withdrawFinishedPayments",
      "outputs": [],
      "stateMutability": "nonpayable",
      "type": "function"
    },
    {
      "inputs": [],
      "name": "withdrawPayments",
      "outputs": [],
      "stateMutability": "nonpayable",
      "type": "function"
    }
  ],
  "bytecode": "0x60a06040526040516200172a3803806200172a8339810160408190526200002691620000c9565b60016000556001600160a01b038116158015906200005557506200005581620000ba60201b62000e101760201c565b6200007d5760405162461bcd60e51b81526004016200007490620000f9565b60405180910390fd5b6001600160601b031960609190911b16608052600380546001600160a01b031963ffffffff60a01b19909116600160a01b1716331790556200013d565b6001600160a01b03163b151590565b600060208284031215620000db578081fd5b81516001600160a01b0381168114620000f2578182fd5b9392505050565b60208082526024908201527f496e76616c6964204375646f73416363657373436f6e74726f6c7320616464726040820152636573732160e01b606082015260800190565b60805160601c6115c06200016a600039600081816103de015281816105a0015261099001526115c06000f3fe6080604052600436106100915760003560e01c80636103d70b116100595780636103d70b146101435780638831644714610158578063d384a0d714610185578063d56bd142146101a5578063f97ea61f146101c757610091565b806309fdd3fd14610096578063104f5ac6146100ab57806311141997146100e15780631c79c970146101015780631f515b2614610123575b600080fd5b6100a96100a4366004610f99565b6101f8565b005b3480156100b757600080fd5b506100cb6100c6366004610f50565b61037e565b6040516100d89190611401565b60405180910390f35b3480156100ed57600080fd5b506100a96100fc366004611043565b6103c7565b34801561010d57600080fd5b5061011661059e565b6040516100d891906110ec565b34801561012f57600080fd5b506100a961013e36600461105b565b6105c2565b34801561014f57600080fd5b506100a96106e8565b34801561016457600080fd5b5061017861017336600461105b565b610919565b6040516100d891906111ac565b34801561019157600080fd5b506100a96101a0366004610f2f565b610971565b3480156101b157600080fd5b506101ba610aa2565b6040516100d89190611100565b3480156101d357600080fd5b506101e76101e236600461105b565b610d40565b6040516100d8959493929190611412565b610200610e1f565b600034116102295760405162461bcd60e51b8152600401610220906111c0565b60405180910390fd5b80516102475760405162461bcd60e51b81526004016102209061125b565b60038054600160a01b900463ffffffff166000818152600160208181526040909220805463ffffffff1916909317640100000000600160c01b03191633640100000000021783553490830155835191926102a79290840191850190610e50565b50336000908152600260209081526040822060038054825460018082018555938652939094206008840401805463ffffffff60079095166004026101000a85810219909116600160a01b9687900486169091021790558054919390926014926103149286929104166114a5565b82546101009290920a63ffffffff81810219909316918316021790915582546040513393507f1ebb0561c61398884f6e01f848f8789ba16e83cf4927a3a3676353a341eacc499261036a9216903490879061145f565b60405180910390a25061037b610e49565b50565b6002602052816000526040600020818154811061039a57600080fd5b9060005260206000209060089182820401919006600402915091509054906101000a900463ffffffff1681565b60405163c395fcb360e01b81526001600160a01b037f0000000000000000000000000000000000000000000000000000000000000000169063c395fcb3906104139033906004016110ec565b60206040518083038186803b15801561042b57600080fd5b505afa15801561043f573d6000803e3d6000fd5b505050506040513d601f19601f820116820180604052508101906104639190610f79565b61047f5760405162461bcd60e51b815260040161022090611393565b610487610e1f565b4760015b60035463ffffffff600160a01b9091048116908216101561050f5763ffffffff811660009081526001602081905260409091209060028083015460ff16908111156104e657634e487b7160e01b600052602160045260246000fd5b14156104fe5760018101546104fb90846114cd565b92505b506105088161153a565b905061048b565b50818110156105305760405162461bcd60e51b815260040161022090611330565b604051339082156108fc029083906000818181858888f1935050505015801561055d573d6000803e3d6000fd5b507f28bbfa84822da8350f42704e732639c053ff055b08c009afabc33327ef16496a3360405161058d91906110ec565b60405180910390a15061037b610e49565b7f000000000000000000000000000000000000000000000000000000000000000081565b6003546001600160a01b031633146105ec5760405162461bcd60e51b815260040161022090611292565b6105f4610e1f565b63ffffffff81166000908152600160208190526040909120015461062a5760405162461bcd60e51b81526004016102209061135c565b63ffffffff8116600090815260016020526040812060029081015460ff169081111561066657634e487b7160e01b600052602160045260246000fd5b146106835760405162461bcd60e51b815260040161022090611300565b63ffffffff8116600090815260016020819052604091829020600201805460ff19169091179055517f1b80b1a6730e406ef8160306d3b725b5e24aa548876b2d6f00658f59bc79698f906106d8908390611401565b60405180910390a161037b610e49565b6106f0610e1f565b3360009081526002602052604090205461071c5760405162461bcd60e51b8152600401610220906112c9565b3360009081526002602090815260408083208054825181850281018501909352808352919290919083018282801561079f57602002820191906000526020600020906000905b82829054906101000a900463ffffffff1663ffffffff16815260200190600401906020826003010492830192600103820291508084116107625790505b50505050509050600080600090505b8251811015610887576000600160008584815181106107dd57634e487b7160e01b600052603260045260246000fd5b602002602001015163ffffffff1663ffffffff16815260200190815260200160002090506001600281111561082257634e487b7160e01b600052602160045260246000fd5b60028083015460ff169081111561084957634e487b7160e01b600052602160045260246000fd5b146108545750610877565b6001810154610863908461148d565b6002918201805460ff191690921790915591505b6108808161151f565b90506107ae565b50600081116108a85760405162461bcd60e51b81526004016102209061122e565b604051339082156108fc029083906000818181858888f193505050501580156108d5573d6000803e3d6000fd5b507fc6050095029b05868634d497408822da7c6fadcbdfbf6a65d7e50e9eaaa812273360405161090591906110ec565b60405180910390a15050610917610e49565b565b63ffffffff811660009081526001602081905260408220015461094e5760405162461bcd60e51b81526004016102209061135c565b5063ffffffff811660009081526001602052604090206002015460ff165b919050565b610979610e1f565b60405163c395fcb360e01b81526001600160a01b037f0000000000000000000000000000000000000000000000000000000000000000169063c395fcb3906109c59033906004016110ec565b60206040518083038186803b1580156109dd57600080fd5b505afa1580156109f1573d6000803e3d6000fd5b505050506040513d601f19601f82011682018060405250810190610a159190610f79565b610a315760405162461bcd60e51b815260040161022090611393565b6001600160a01b038116610a575760405162461bcd60e51b8152600401610220906111f7565b600380546001600160a01b0319166001600160a01b0383161790556040517fe93083bc463082401a540092678b5ab90df69cadbe89adf403f0fa8d4c01aa81906106d89083906110ec565b336000908152600260209081526040808320805482518185028101850190935280835260609493830182828015610b2457602002820191906000526020600020906000905b82829054906101000a900463ffffffff1663ffffffff1681526020019060040190602082600301049283019260010382029150808411610ae75790505b505050505090506000815167ffffffffffffffff811115610b5557634e487b7160e01b600052604160045260246000fd5b604051908082528060200260200182016040528015610b8e57816020015b610b7b610ed4565b815260200190600190039081610b735790505b50905060005b8251811015610d395760016000848381518110610bc157634e487b7160e01b600052603260045260246000fd5b60209081029190910181015163ffffffff9081168352828201939093526040918201600020825160a081018452815494851681526401000000009094046001600160a01b031691840191909152600181015491830191909152600280820154606084019160ff90911690811115610c4857634e487b7160e01b600052602160045260246000fd5b6002811115610c6757634e487b7160e01b600052602160045260246000fd5b8152602001600382018054610c7b906114e4565b80601f0160208091040260200160405190810160405280929190818152602001828054610ca7906114e4565b8015610cf45780601f10610cc957610100808354040283529160200191610cf4565b820191906000526020600020905b815481529060010190602001808311610cd757829003601f168201915b505050505081525050828281518110610d1d57634e487b7160e01b600052603260045260246000fd5b602002602001018190525080610d329061151f565b9050610b94565b5091505090565b6001602081905260009182526040909120805491810154600282015460038301805463ffffffff86169564010000000090046001600160a01b03169460ff909316929190610d8d906114e4565b80601f0160208091040260200160405190810160405280929190818152602001828054610db9906114e4565b8015610e065780601f10610ddb57610100808354040283529160200191610e06565b820191906000526020600020905b815481529060010190602001808311610de957829003601f168201915b5050505050905085565b6001600160a01b03163b151590565b60026000541415610e425760405162461bcd60e51b8152600401610220906113ca565b6002600055565b6001600055565b828054610e5c906114e4565b90600052602060002090601f016020900481019282610e7e5760008555610ec4565b82601f10610e9757805160ff1916838001178555610ec4565b82800160010185558215610ec4579182015b82811115610ec4578251825591602001919060010190610ea9565b50610ed0929150610f03565b5090565b6040805160a0810182526000808252602082018190529181018290529060608201908152602001606081525090565b5b80821115610ed05760008155600101610f04565b80356001600160a01b038116811461096c57600080fd5b600060208284031215610f40578081fd5b610f4982610f18565b9392505050565b60008060408385031215610f62578081fd5b610f6b83610f18565b946020939093013593505050565b600060208284031215610f8a578081fd5b81518015158114610f49578182fd5b600060208284031215610faa578081fd5b813567ffffffffffffffff80821115610fc1578283fd5b818401915084601f830112610fd4578283fd5b813581811115610fe657610fe6611574565b604051601f8201601f19908116603f0116810190838211818310171561100e5761100e611574565b81604052828152876020848701011115611026578586fd5b826020860160208301379182016020019490945295945050505050565b600060208284031215611054578081fd5b5035919050565b60006020828403121561106c578081fd5b813563ffffffff81168114610f49578182fd5b60008151808452815b818110156110a457602081850181015186830182015201611088565b818111156110b55782602083870101525b50601f01601f19169290920160200192915050565b600381106110e857634e487b7160e01b600052602160045260246000fd5b9052565b6001600160a01b0391909116815260200190565b60208082528251828201819052600091906040908185019080840286018301878501865b8381101561119e57888303603f190185528151805163ffffffff168452878101516001600160a01b031688850152868101518785015260608082015160a09190611170828801826110ca565b505060809182015191850181905261118a8582018361107f565b968901969450505090860190600101611124565b509098975050505050505050565b602081016111ba82846110ca565b92915050565b60208082526018908201527f416d6f756e74206d75737420626520706f736974697665210000000000000000604082015260600190565b60208082526017908201527f496e76616c69642072656c617965722061646472657373000000000000000000604082015260600190565b6020808252601390820152724e6f7468696e6720746f20776974686472617760681b604082015260600190565b6020808252601d908201527f4375646f73416464726573732063616e6e6f7420626520656d70747921000000604082015260600190565b6020808252601b908201527f4d73672073656e646572206e6f74207468652072656c617965722e0000000000604082015260600190565b6020808252601c908201527f6e6f207061796d656e747320666f722074686174206164647265737300000000604082015260600190565b6020808252601690820152755061796d656e74206973206e6f74206c6f636b65642160501b604082015260600190565b602080825260129082015271416d6f756e74203e20617661696c61626c6560701b604082015260600190565b60208082526017908201527f4e6f6e206578697374696e67207061796d656e74496421000000000000000000604082015260600190565b6020808252601a908201527f526563697069656e74206973206e6f7420616e2061646d696e21000000000000604082015260600190565b6020808252601f908201527f5265656e7472616e637947756172643a207265656e7472616e742063616c6c00604082015260600190565b63ffffffff91909116815260200190565b63ffffffff861681526001600160a01b038516602082015260408101849052600061144060608301856110ca565b60a0608083015261145460a083018461107f565b979650505050505050565b600063ffffffff8516825283602083015260606040830152611484606083018461107f565b95945050505050565b600082198211156114a0576114a061155e565b500190565b600063ffffffff8083168185168083038211156114c4576114c461155e565b01949350505050565b6000828210156114df576114df61155e565b500390565b6002810460018216806114f857607f821691505b6020821081141561151957634e487b7160e01b600052602260045260246000fd5b50919050565b60006000198214156115335761153361155e565b5060010190565b600063ffffffff808316818114156115545761155461155e565b6001019392505050565b634e487b7160e01b600052601160045260246000fd5b634e487b7160e01b600052604160045260246000fdfea26469706673582212206a13bf566604fe0a96f2065aea6e410cd71067e0e9fd9daa9a9b26f4bd4ade0f64736f6c63430008010033",
  "linkReferences": {},
  "deployedLinkReferences": {}
}